{
  "_format": "hh-sol-artifact-1",
  "contractName": "DAIID",
  "sourceName": "contracts/DAIID.sol",
  "abi": [
    {
      "anonymous": false,
      "inputs": [
        {
          "indexed": true,
          "internalType": "bytes32",
          "name": "imageHash",
          "type": "bytes32"
        },
        {
          "indexed": false,
          "internalType": "string",
          "name": "ipfsCID",
          "type": "string"
        }
      ],
      "name": "ImageRegistered",
      "type": "event"
    },
    {
      "anonymous": false,
      "inputs": [
        {
          "indexed": true,
          "internalType": "address",
          "name": "node",
          "type": "address"
        },
        {
          "indexed": false,
          "internalType": "uint256",
          "name": "amount",
          "type": "uint256"
        }
      ],
      "name": "NodeStaked",
      "type": "event"
    },
    {
      "anonymous": false,
      "inputs": [
        {
          "indexed": true,
          "internalType": "bytes32",
          "name": "imageHash",
          "type": "bytes32"
        },
        {
          "indexed": false,
          "internalType": "uint256",
          "name": "consensus",
          "type": "uint256"
        }
      ],
      "name": "VoteFinalized",
      "type": "event"
    },
    {
      "anonymous": false,
      "inputs": [
        {
          "indexed": true,
          "internalType": "address",
          "name": "node",
          "type": "address"
        },
        {
          "indexed": true,
          "internalType": "bytes32",
          "name": "imageHash",
          "type": "bytes32"
        },
        {
          "indexed": false,
          "internalType": "uint256",
          "name": "vote",
          "type": "uint256"
        },
        {
          "indexed": false,
          "internalType": "uint256",
          "name": "weight",
          "type": "uint256"
        }
      ],
      "name": "Voted",
      "type": "event"
    },
    {
      "inputs": [
        {
          "internalType": "bytes32",
          "name": "imageHash",
          "type": "bytes32"
        }
      ],
      "name": "finalizeVote",
      "outputs": [],
      "stateMutability": "nonpayable",
      "type": "function"
    },
    {
      "inputs": [
        {
          "internalType": "bytes32",
          "name": "imageHash",
          "type": "bytes32"
        }
      ],
      "name": "getConsensus",
      "outputs": [
        {
          "internalType": "uint256",
          "name": "",
          "type": "uint256"
        }
      ],
      "stateMutability": "view",
      "type": "function"
    },
    {
      "inputs": [],
      "name": "getImageCount",
      "outputs": [
        {
          "internalType": "uint256",
          "name": "",
          "type": "uint256"
        }
      ],
      "stateMutability": "view",
      "type": "function"
    },
    {
      "inputs": [
        {
          "internalType": "uint256",
          "name": "index",
          "type": "uint256"
        }
      ],
      "name": "getImageData",
      "outputs": [
        {
          "internalType": "bytes32",
          "name": "imageHash",
          "type": "bytes32"
        },
        {
          "internalType": "string",
          "name": "ipfsCID",
          "type": "string"
        },
        {
          "internalType": "uint256",
          "name": "consensus",
          "type": "uint256"
        }
      ],
      "stateMutability": "view",
      "type": "function"
    },
    {
      "inputs": [
        {
          "internalType": "uint256",
          "name": "",
          "type": "uint256"
        }
      ],
      "name": "imageList",
      "outputs": [
        {
          "internalType": "bytes32",
          "name": "",
          "type": "bytes32"
        }
      ],
      "stateMutability": "view",
      "type": "function"
    },
    {
      "inputs": [
        {
          "internalType": "uint256",
          "name": "",
          "type": "uint256"
        }
      ],
      "name": "nodeAddresses",
      "outputs": [
        {
          "internalType": "address",
          "name": "",
          "type": "address"
        }
      ],
      "stateMutability": "view",
      "type": "function"
    },
    {
      "inputs": [
        {
          "internalType": "address",
          "name": "",
          "type": "address"
        }
      ],
      "name": "nodes",
      "outputs": [
        {
          "internalType": "uint256",
          "name": "stake",
          "type": "uint256"
        },
        {
          "internalType": "uint256",
          "name": "reputation",
          "type": "uint256"
        },
        {
          "internalType": "bool",
          "name": "exists",
          "type": "bool"
        }
      ],
      "stateMutability": "view",
      "type": "function"
    },
    {
      "inputs": [
        {
          "internalType": "bytes32",
          "name": "imageHash",
          "type": "bytes32"
        },
        {
          "internalType": "string",
          "name": "ipfsCID",
          "type": "string"
        }
      ],
      "name": "registerImage",
      "outputs": [],
      "stateMutability": "nonpayable",
      "type": "function"
    },
    {
      "inputs": [],
      "name": "stake",
      "outputs": [],
      "stateMutability": "payable",
      "type": "function"
    },
    {
      "inputs": [
        {
          "internalType": "bytes32",
          "name": "imageHash",
          "type": "bytes32"
        },
        {
          "internalType": "uint256",
          "name": "voteScore",
          "type": "uint256"
        }
      ],
      "name": "vote",
      "outputs": [],
      "stateMutability": "nonpayable",
      "type": "function"
    }
  ],
  "bytecode": "0x6080604052348015600f57600080fd5b50611e318061001f6000396000f3fe6080604052600436106100915760003560e01c80638b75d75a116100595780638b75d75a1461018457806396e87d19146101ad5780639ef1204c146101ea578063c4d7709014610213578063f97c44a91461025057610091565b8063189a5a17146100965780633a4b66f1146100d5578063529ca207146100df5780637c37cd161461011e5780638a87e78514610147575b600080fd5b3480156100a257600080fd5b506100bd60048036038101906100b89190611116565b61027b565b6040516100cc93929190611177565b60405180910390f35b6100dd6102b2565b005b3480156100eb57600080fd5b50610106600480360381019061010191906111da565b6104ed565b604051610115939291906112b0565b60405180910390f35b34801561012a57600080fd5b506101456004803603810190610140919061144f565b610641565b005b34801561015357600080fd5b5061016e600480360381019061016991906114ab565b61073f565b60405161017b91906114d8565b60405180910390f35b34801561019057600080fd5b506101ab60048036038101906101a691906114ab565b61078a565b005b3480156101b957600080fd5b506101d460048036038101906101cf91906111da565b610cd9565b6040516101e191906114f3565b60405180910390f35b3480156101f657600080fd5b50610211600480360381019061020c919061150e565b610cfd565b005b34801561021f57600080fd5b5061023a600480360381019061023591906111da565b611058565b604051610247919061155d565b60405180910390f35b34801561025c57600080fd5b50610265611097565b60405161027291906114d8565b60405180910390f35b60006020528060005260406000206000915090508060000154908060010154908060020160009054906101000a900460ff16905083565b600034116102f5576040517f08c379a00000000000000000000000000000000000000000000000000000000081526004016102ec906115c4565b60405180910390fd5b6000803373ffffffffffffffffffffffffffffffffffffffff1673ffffffffffffffffffffffffffffffffffffffff16815260200190815260200160002060020160009054906101000a900460ff1661044457604051806060016040528034815260200160328152602001600115158152506000803373ffffffffffffffffffffffffffffffffffffffff1673ffffffffffffffffffffffffffffffffffffffff168152602001908152602001600020600082015181600001556020820151816001015560408201518160020160006101000a81548160ff0219169083151502179055509050506001339080600181540180825580915050600190039060005260206000200160009091909190916101000a81548173ffffffffffffffffffffffffffffffffffffffff021916908373ffffffffffffffffffffffffffffffffffffffff16021790555061049d565b346000803373ffffffffffffffffffffffffffffffffffffffff1673ffffffffffffffffffffffffffffffffffffffff16815260200190815260200160002060000160008282546104959190611613565b925050819055505b3373ffffffffffffffffffffffffffffffffffffffff167ff02b9c90d1a12278c9244be1ddc794b15f8a3b9d50cf085ad7711683c0f9a090346040516104e391906114d8565b60405180910390a2565b600060606000600380549050841061053a576040517f08c379a000000000000000000000000000000000000000000000000000000000815260040161053190611693565b60405180910390fd5b6000600385815481106105505761054f6116b3565b5b90600052602060002001549050600060026000838152602001908152602001600020905060008082600001541461059a57816000015482600101546105959190611711565b61059d565b60005b90508282600201828180546105b190611771565b80601f01602080910402602001604051908101604052809291908181526020018280546105dd90611771565b801561062a5780601f106105ff5761010080835404028352916020019161062a565b820191906000526020600020905b81548152906001019060200180831161060d57829003601f168201915b505050505091509550955095505050509193909250565b60006002600084815260200190815260200160002090508060030160009054906101000a900460ff16156106aa576040517f08c379a00000000000000000000000000000000000000000000000000000000081526004016106a1906117ee565b60405180910390fd5b818160020190816106bb91906119ba565b5060018160030160006101000a81548160ff0219169083151502179055506003839080600181540180825580915050600190039060005260206000200160009091909190915055827f628b58195bf77049abeca02364ab082e4b2e186645f8c50766f44ce6f217a6a7836040516107329190611a8c565b60405180910390a2505050565b600080600260008481526020019081526020016000209050600081600001540361076d576000915050610785565b806000015481600101546107819190611711565b9150505b919050565b60006002600083815260200190815260200160002090508060030160019054906101000a900460ff16156107f3576040517f08c379a00000000000000000000000000000000000000000000000000000000081526004016107ea90611afa565b60405180910390fd5b600081600001541161083a576040517f08c379a000000000000000000000000000000000000000000000000000000000815260040161083190611b66565b60405180910390fd5b600481600601805490501015610885576040517f08c379a000000000000000000000000000000000000000000000000000000000815260040161087c90611bd2565b60405180910390fd5b60008160000154826001015461089b9190611711565b905060005b8260060180549050811015610c7e5760008360060182815481106108c7576108c66116b3565b5b9060005260206000200160009054906101000a900473ffffffffffffffffffffffffffffffffffffffff16905060008460050160008373ffffffffffffffffffffffffffffffffffffffff1673ffffffffffffffffffffffffffffffffffffffff168152602001908152602001600020549050600084821161095457818561094f9190611bf2565b610961565b84826109609190611bf2565b5b9050600a81116109c95760056000808573ffffffffffffffffffffffffffffffffffffffff1673ffffffffffffffffffffffffffffffffffffffff16815260200190815260200160002060010160008282546109bd9190611613565b92505081905550610c6e565b601e811115610b7d5760056000808573ffffffffffffffffffffffffffffffffffffffff1673ffffffffffffffffffffffffffffffffffffffff1681526020019081526020016000206001015410610a795760056000808573ffffffffffffffffffffffffffffffffffffffff1673ffffffffffffffffffffffffffffffffffffffff1681526020019081526020016000206001016000828254610a6d9190611bf2565b92505081905550610ac1565b60008060008573ffffffffffffffffffffffffffffffffffffffff1673ffffffffffffffffffffffffffffffffffffffff168152602001908152602001600020600101819055505b6000606460056000808773ffffffffffffffffffffffffffffffffffffffff1673ffffffffffffffffffffffffffffffffffffffff16815260200190815260200160002060000154610b139190611c26565b610b1d9190611711565b9050806000808673ffffffffffffffffffffffffffffffffffffffff1673ffffffffffffffffffffffffffffffffffffffff1681526020019081526020016000206000016000828254610b709190611bf2565b9250508190555050610c6d565b60016000808573ffffffffffffffffffffffffffffffffffffffff1673ffffffffffffffffffffffffffffffffffffffff1681526020019081526020016000206001015410610c245760016000808573ffffffffffffffffffffffffffffffffffffffff1673ffffffffffffffffffffffffffffffffffffffff1681526020019081526020016000206001016000828254610c189190611bf2565b92505081905550610c6c565b60008060008573ffffffffffffffffffffffffffffffffffffffff1673ffffffffffffffffffffffffffffffffffffffff168152602001908152602001600020600101819055505b5b5b50505080806001019150506108a0565b5060018260030160016101000a81548160ff021916908315150217905550827f8faf1af6479db0c0bfe201fcdce936838291bd072079f71c7a0aaec80c6b8ddd82604051610ccc91906114d8565b60405180910390a2505050565b60038181548110610ce957600080fd5b906000526020600020016000915090505481565b6000803373ffffffffffffffffffffffffffffffffffffffff1673ffffffffffffffffffffffffffffffffffffffff16815260200190815260200160002060020160009054906101000a900460ff16610d8b576040517f08c379a0000000000000000000000000000000000000000000000000000000008152600401610d8290611cb4565b60405180910390fd5b6064811115610dcf576040517f08c379a0000000000000000000000000000000000000000000000000000000008152600401610dc690611d46565b60405180910390fd5b60006002600084815260200190815260200160002090508060040160003373ffffffffffffffffffffffffffffffffffffffff1673ffffffffffffffffffffffffffffffffffffffff16815260200190815260200160002060009054906101000a900460ff1615610e75576040517f08c379a0000000000000000000000000000000000000000000000000000000008152600401610e6c90611db2565b60405180910390fd5b60008060003373ffffffffffffffffffffffffffffffffffffffff1673ffffffffffffffffffffffffffffffffffffffff16815260200190815260200160002060000154905080826000016000828254610ecf9190611613565b925050819055508083610ee29190611c26565b826001016000828254610ef59190611613565b9250508190555060018260040160003373ffffffffffffffffffffffffffffffffffffffff1673ffffffffffffffffffffffffffffffffffffffff16815260200190815260200160002060006101000a81548160ff021916908315150217905550828260050160003373ffffffffffffffffffffffffffffffffffffffff1673ffffffffffffffffffffffffffffffffffffffff1681526020019081526020016000208190555081600601339080600181540180825580915050600190039060005260206000200160009091909190916101000a81548173ffffffffffffffffffffffffffffffffffffffff021916908373ffffffffffffffffffffffffffffffffffffffff160217905550833373ffffffffffffffffffffffffffffffffffffffff167fdaf7488030e3c397e3ccb09e585d2b51afb0b3c477c5c2e392ee6ebcbecdf370858460405161104a929190611dd2565b60405180910390a350505050565b6001818154811061106857600080fd5b906000526020600020016000915054906101000a900473ffffffffffffffffffffffffffffffffffffffff1681565b6000600380549050905090565b6000604051905090565b600080fd5b600080fd5b600073ffffffffffffffffffffffffffffffffffffffff82169050919050565b60006110e3826110b8565b9050919050565b6110f3816110d8565b81146110fe57600080fd5b50565b600081359050611110816110ea565b92915050565b60006020828403121561112c5761112b6110ae565b5b600061113a84828501611101565b91505092915050565b6000819050919050565b61115681611143565b82525050565b60008115159050919050565b6111718161115c565b82525050565b600060608201905061118c600083018661114d565b611199602083018561114d565b6111a66040830184611168565b949350505050565b6111b781611143565b81146111c257600080fd5b50565b6000813590506111d4816111ae565b92915050565b6000602082840312156111f0576111ef6110ae565b5b60006111fe848285016111c5565b91505092915050565b6000819050919050565b61121a81611207565b82525050565b600081519050919050565b600082825260208201905092915050565b60005b8381101561125a57808201518184015260208101905061123f565b60008484015250505050565b6000601f19601f8301169050919050565b600061128282611220565b61128c818561122b565b935061129c81856020860161123c565b6112a581611266565b840191505092915050565b60006060820190506112c56000830186611211565b81810360208301526112d78185611277565b90506112e6604083018461114d565b949350505050565b6112f781611207565b811461130257600080fd5b50565b600081359050611314816112ee565b92915050565b600080fd5b600080fd5b7f4e487b7100000000000000000000000000000000000000000000000000000000600052604160045260246000fd5b61135c82611266565b810181811067ffffffffffffffff8211171561137b5761137a611324565b5b80604052505050565b600061138e6110a4565b905061139a8282611353565b919050565b600067ffffffffffffffff8211156113ba576113b9611324565b5b6113c382611266565b9050602081019050919050565b82818337600083830152505050565b60006113f26113ed8461139f565b611384565b90508281526020810184848401111561140e5761140d61131f565b5b6114198482856113d0565b509392505050565b600082601f8301126114365761143561131a565b5b81356114468482602086016113df565b91505092915050565b60008060408385031215611466576114656110ae565b5b600061147485828601611305565b925050602083013567ffffffffffffffff811115611495576114946110b3565b5b6114a185828601611421565b9150509250929050565b6000602082840312156114c1576114c06110ae565b5b60006114cf84828501611305565b91505092915050565b60006020820190506114ed600083018461114d565b92915050565b60006020820190506115086000830184611211565b92915050565b60008060408385031215611525576115246110ae565b5b600061153385828601611305565b9250506020611544858286016111c5565b9150509250929050565b611557816110d8565b82525050565b6000602082019050611572600083018461154e565b92915050565b7f4d757374207374616b6520736f6d652045746865720000000000000000000000600082015250565b60006115ae60158361122b565b91506115b982611578565b602082019050919050565b600060208201905081810360008301526115dd816115a1565b9050919050565b7f4e487b7100000000000000000000000000000000000000000000000000000000600052601160045260246000fd5b600061161e82611143565b915061162983611143565b9250828201905080821115611641576116406115e4565b5b92915050565b7f496e646578206f7574206f6620626f756e647300000000000000000000000000600082015250565b600061167d60138361122b565b915061168882611647565b602082019050919050565b600060208201905081810360008301526116ac81611670565b9050919050565b7f4e487b7100000000000000000000000000000000000000000000000000000000600052603260045260246000fd5b7f4e487b7100000000000000000000000000000000000000000000000000000000600052601260045260246000fd5b600061171c82611143565b915061172783611143565b925082611737576117366116e2565b5b828204905092915050565b7f4e487b7100000000000000000000000000000000000000000000000000000000600052602260045260246000fd5b6000600282049050600182168061178957607f821691505b60208210810361179c5761179b611742565b5b50919050565b7f496d61676520616c726561647920726567697374657265640000000000000000600082015250565b60006117d860188361122b565b91506117e3826117a2565b602082019050919050565b60006020820190508181036000830152611807816117cb565b9050919050565b60008190508160005260206000209050919050565b60006020601f8301049050919050565b600082821b905092915050565b6000600883026118707fffffffffffffffffffffffffffffffffffffffffffffffffffffffffffffffff82611833565b61187a8683611833565b95508019841693508086168417925050509392505050565b6000819050919050565b60006118b76118b26118ad84611143565b611892565b611143565b9050919050565b6000819050919050565b6118d18361189c565b6118e56118dd826118be565b848454611840565b825550505050565b600090565b6118fa6118ed565b6119058184846118c8565b505050565b5b818110156119295761191e6000826118f2565b60018101905061190b565b5050565b601f82111561196e5761193f8161180e565b61194884611823565b81016020851015611957578190505b61196b61196385611823565b83018261190a565b50505b505050565b600082821c905092915050565b600061199160001984600802611973565b1980831691505092915050565b60006119aa8383611980565b9150826002028217905092915050565b6119c382611220565b67ffffffffffffffff8111156119dc576119db611324565b5b6119e68254611771565b6119f182828561192d565b600060209050601f831160018114611a245760008415611a12578287015190505b611a1c858261199e565b865550611a84565b601f198416611a328661180e565b60005b82811015611a5a57848901518255600182019150602085019450602081019050611a35565b86831015611a775784890151611a73601f891682611980565b8355505b6001600288020188555050505b505050505050565b60006020820190508181036000830152611aa68184611277565b905092915050565b7f566f746520616c72656164792066696e616c697a656400000000000000000000600082015250565b6000611ae460168361122b565b9150611aef82611aae565b602082019050919050565b60006020820190508181036000830152611b1381611ad7565b9050919050565b7f4e6f20766f746573206361737400000000000000000000000000000000000000600082015250565b6000611b50600d8361122b565b9150611b5b82611b1a565b602082019050919050565b60006020820190508181036000830152611b7f81611b43565b9050919050565b7f4174206c65617374203420766f74657320726571756972656400000000000000600082015250565b6000611bbc60198361122b565b9150611bc782611b86565b602082019050919050565b60006020820190508181036000830152611beb81611baf565b9050919050565b6000611bfd82611143565b9150611c0883611143565b9250828203905081811115611c2057611c1f6115e4565b5b92915050565b6000611c3182611143565b9150611c3c83611143565b9250828202611c4a81611143565b91508282048414831517611c6157611c606115e4565b5b5092915050565b7f4e6f6465206e6f74207374616b65640000000000000000000000000000000000600082015250565b6000611c9e600f8361122b565b9150611ca982611c68565b602082019050919050565b60006020820190508181036000830152611ccd81611c91565b9050919050565b7f566f74652073636f7265206d757374206265206265747765656e203020616e6460008201527f2031303000000000000000000000000000000000000000000000000000000000602082015250565b6000611d3060248361122b565b9150611d3b82611cd4565b604082019050919050565b60006020820190508181036000830152611d5f81611d23565b9050919050565b7f416c726561647920766f74656400000000000000000000000000000000000000600082015250565b6000611d9c600d8361122b565b9150611da782611d66565b602082019050919050565b60006020820190508181036000830152611dcb81611d8f565b9050919050565b6000604082019050611de7600083018561114d565b611df4602083018461114d565b939250505056fea264697066735822122092618163694a13f301ea61abca275bdf5ab850b5d9b2379046b09cec95d912df64736f6c634300081c0033",
  "linkReferences": {},
  "deployedLinkReferences": {}
}